{
  "_format": "hh-sol-artifact-1",
  "contractName": "token_upgradeable",
  "sourceName": "contracts/token_upgradeable.sol",
  "abi": [
    {
      "anonymous": false,
      "inputs": [
        {
          "indexed": false,
          "internalType": "address",
          "name": "previousAdmin",
          "type": "address"
        },
        {
          "indexed": false,
          "internalType": "address",
          "name": "newAdmin",
          "type": "address"
        }
      ],
      "name": "AdminChanged",
      "type": "event"
    },
    {
      "anonymous": false,
      "inputs": [
        {
          "indexed": true,
          "internalType": "address",
          "name": "owner",
          "type": "address"
        },
        {
          "indexed": true,
          "internalType": "address",
          "name": "spender",
          "type": "address"
        },
        {
          "indexed": false,
          "internalType": "uint256",
          "name": "value",
          "type": "uint256"
        }
      ],
      "name": "Approval",
      "type": "event"
    },
    {
      "anonymous": false,
      "inputs": [
        {
          "indexed": true,
          "internalType": "address",
          "name": "beacon",
          "type": "address"
        }
      ],
      "name": "BeaconUpgraded",
      "type": "event"
    },
    {
      "anonymous": false,
      "inputs": [
        {
          "indexed": false,
          "internalType": "uint8",
          "name": "version",
          "type": "uint8"
        }
      ],
      "name": "Initialized",
      "type": "event"
    },
    {
      "anonymous": false,
      "inputs": [
        {
          "indexed": true,
          "internalType": "address",
          "name": "previousOwner",
          "type": "address"
        },
        {
          "indexed": true,
          "internalType": "address",
          "name": "newOwner",
          "type": "address"
        }
      ],
      "name": "OwnershipTransferred",
      "type": "event"
    },
    {
      "anonymous": false,
      "inputs": [
        {
          "indexed": true,
          "internalType": "address",
          "name": "from",
          "type": "address"
        },
        {
          "indexed": true,
          "internalType": "address",
          "name": "to",
          "type": "address"
        },
        {
          "indexed": false,
          "internalType": "uint256",
          "name": "value",
          "type": "uint256"
        }
      ],
      "name": "Transfer",
      "type": "event"
    },
    {
      "anonymous": false,
      "inputs": [
        {
          "indexed": true,
          "internalType": "address",
          "name": "implementation",
          "type": "address"
        }
      ],
      "name": "Upgraded",
      "type": "event"
    },
    {
      "inputs": [
        {
          "internalType": "address",
          "name": "owner",
          "type": "address"
        },
        {
          "internalType": "address",
          "name": "spender",
          "type": "address"
        }
      ],
      "name": "allowance",
      "outputs": [
        {
          "internalType": "uint256",
          "name": "",
          "type": "uint256"
        }
      ],
      "stateMutability": "view",
      "type": "function"
    },
    {
      "inputs": [
        {
          "internalType": "address",
          "name": "spender",
          "type": "address"
        },
        {
          "internalType": "uint256",
          "name": "amount",
          "type": "uint256"
        }
      ],
      "name": "approve",
      "outputs": [
        {
          "internalType": "bool",
          "name": "",
          "type": "bool"
        }
      ],
      "stateMutability": "nonpayable",
      "type": "function"
    },
    {
      "inputs": [
        {
          "internalType": "address",
          "name": "account",
          "type": "address"
        }
      ],
      "name": "balanceOf",
      "outputs": [
        {
          "internalType": "uint256",
          "name": "",
          "type": "uint256"
        }
      ],
      "stateMutability": "view",
      "type": "function"
    },
    {
      "inputs": [],
      "name": "decimals",
      "outputs": [
        {
          "internalType": "uint8",
          "name": "",
          "type": "uint8"
        }
      ],
      "stateMutability": "view",
      "type": "function"
    },
    {
      "inputs": [
        {
          "internalType": "address",
          "name": "spender",
          "type": "address"
        },
        {
          "internalType": "uint256",
          "name": "subtractedValue",
          "type": "uint256"
        }
      ],
      "name": "decreaseAllowance",
      "outputs": [
        {
          "internalType": "bool",
          "name": "",
          "type": "bool"
        }
      ],
      "stateMutability": "nonpayable",
      "type": "function"
    },
    {
      "inputs": [
        {
          "internalType": "address",
          "name": "spender",
          "type": "address"
        },
        {
          "internalType": "uint256",
          "name": "addedValue",
          "type": "uint256"
        }
      ],
      "name": "increaseAllowance",
      "outputs": [
        {
          "internalType": "bool",
          "name": "",
          "type": "bool"
        }
      ],
      "stateMutability": "nonpayable",
      "type": "function"
    },
    {
      "inputs": [],
      "name": "name",
      "outputs": [
        {
          "internalType": "string",
          "name": "",
          "type": "string"
        }
      ],
      "stateMutability": "view",
      "type": "function"
    },
    {
      "inputs": [],
      "name": "owner",
      "outputs": [
        {
          "internalType": "address",
          "name": "",
          "type": "address"
        }
      ],
      "stateMutability": "view",
      "type": "function"
    },
    {
      "inputs": [],
      "name": "proxiableUUID",
      "outputs": [
        {
          "internalType": "bytes32",
          "name": "",
          "type": "bytes32"
        }
      ],
      "stateMutability": "view",
      "type": "function"
    },
    {
      "inputs": [],
      "name": "renounceOwnership",
      "outputs": [],
      "stateMutability": "nonpayable",
      "type": "function"
    },
    {
      "inputs": [
        {
          "internalType": "uint256",
          "name": "initial_supply",
          "type": "uint256"
        }
      ],
      "name": "start",
      "outputs": [],
      "stateMutability": "nonpayable",
      "type": "function"
    },
    {
      "inputs": [],
      "name": "symbol",
      "outputs": [
        {
          "internalType": "string",
          "name": "",
          "type": "string"
        }
      ],
      "stateMutability": "view",
      "type": "function"
    },
    {
      "inputs": [],
      "name": "totalSupply",
      "outputs": [
        {
          "internalType": "uint256",
          "name": "",
          "type": "uint256"
        }
      ],
      "stateMutability": "view",
      "type": "function"
    },
    {
      "inputs": [
        {
          "internalType": "address",
          "name": "to",
          "type": "address"
        },
        {
          "internalType": "uint256",
          "name": "amount",
          "type": "uint256"
        }
      ],
      "name": "transfer",
      "outputs": [
        {
          "internalType": "bool",
          "name": "",
          "type": "bool"
        }
      ],
      "stateMutability": "nonpayable",
      "type": "function"
    },
    {
      "inputs": [
        {
          "internalType": "address",
          "name": "from",
          "type": "address"
        },
        {
          "internalType": "address",
          "name": "to",
          "type": "address"
        },
        {
          "internalType": "uint256",
          "name": "amount",
          "type": "uint256"
        }
      ],
      "name": "transferFrom",
      "outputs": [
        {
          "internalType": "bool",
          "name": "",
          "type": "bool"
        }
      ],
      "stateMutability": "nonpayable",
      "type": "function"
    },
    {
      "inputs": [
        {
          "internalType": "address",
          "name": "newOwner",
          "type": "address"
        }
      ],
      "name": "transferOwnership",
      "outputs": [],
      "stateMutability": "nonpayable",
      "type": "function"
    },
    {
      "inputs": [
        {
          "internalType": "address",
          "name": "newImplementation",
          "type": "address"
        }
      ],
      "name": "upgradeTo",
      "outputs": [],
      "stateMutability": "nonpayable",
      "type": "function"
    },
    {
      "inputs": [
        {
          "internalType": "address",
          "name": "newImplementation",
          "type": "address"
        },
        {
          "internalType": "bytes",
          "name": "data",
          "type": "bytes"
        }
      ],
      "name": "upgradeToAndCall",
      "outputs": [],
      "stateMutability": "payable",
      "type": "function"
    }
  ],
  "bytecode": "0x60a06040523073ffffffffffffffffffffffffffffffffffffffff1660809073ffffffffffffffffffffffffffffffffffffffff1681525034801561004357600080fd5b5060805161311e61007b60003960008181610562015281816105f001528181610721015281816107af015261085f015261311e6000f3fe6080604052600436106101095760003560e01c806370a082311161009557806395d89b411161006457806395d89b411461035e578063a457c2d714610389578063a9059cbb146103c6578063dd62ed3e14610403578063f2fde38b1461044057610109565b806370a08231146102b6578063715018a6146102f35780638da5cb5b1461030a57806395805dad1461033557610109565b8063313ce567116100dc578063313ce567146101de5780633659cfe61461020957806339509351146102325780634f1ef2861461026f57806352d1902d1461028b57610109565b806306fdde031461010e578063095ea7b31461013957806318160ddd1461017657806323b872dd146101a1575b600080fd5b34801561011a57600080fd5b50610123610469565b6040516101309190611bd2565b60405180910390f35b34801561014557600080fd5b50610160600480360381019061015b9190611c9c565b6104fb565b60405161016d9190611cf7565b60405180910390f35b34801561018257600080fd5b5061018b61051e565b6040516101989190611d21565b60405180910390f35b3480156101ad57600080fd5b506101c860048036038101906101c39190611d3c565b610528565b6040516101d59190611cf7565b60405180910390f35b3480156101ea57600080fd5b506101f3610557565b6040516102009190611dab565b60405180910390f35b34801561021557600080fd5b50610230600480360381019061022b9190611dc6565b610560565b005b34801561023e57600080fd5b5061025960048036038101906102549190611c9c565b6106e8565b6040516102669190611cf7565b60405180910390f35b61028960048036038101906102849190611f28565b61071f565b005b34801561029757600080fd5b506102a061085b565b6040516102ad9190611f9d565b60405180910390f35b3480156102c257600080fd5b506102dd60048036038101906102d89190611dc6565b610914565b6040516102ea9190611d21565b60405180910390f35b3480156102ff57600080fd5b5061030861095d565b005b34801561031657600080fd5b5061031f610971565b60405161032c9190611fc7565b60405180910390f35b34801561034157600080fd5b5061035c60048036038101906103579190611fe2565b61099b565b005b34801561036a57600080fd5b50610373610b7e565b6040516103809190611bd2565b60405180910390f35b34801561039557600080fd5b506103b060048036038101906103ab9190611c9c565b610c10565b6040516103bd9190611cf7565b60405180910390f35b3480156103d257600080fd5b506103ed60048036038101906103e89190611c9c565b610c87565b6040516103fa9190611cf7565b60405180910390f35b34801561040f57600080fd5b5061042a6004803603810190610425919061200f565b610caa565b6040516104379190611d21565b60405180910390f35b34801561044c57600080fd5b5061046760048036038101906104629190611dc6565b610d31565b005b6060603680546104789061207e565b80601f01602080910402602001604051908101604052809291908181526020018280546104a49061207e565b80156104f15780601f106104c6576101008083540402835291602001916104f1565b820191906000526020600020905b8154815290600101906020018083116104d457829003601f168201915b5050505050905090565b600080610506610db4565b9050610513818585610dbc565b600191505092915050565b6000603554905090565b600080610533610db4565b9050610540858285610f85565b61054b858585611011565b60019150509392505050565b60006012905090565b7f000000000000000000000000000000000000000000000000000000000000000073ffffffffffffffffffffffffffffffffffffffff163073ffffffffffffffffffffffffffffffffffffffff16036105ee576040517f08c379a00000000000000000000000000000000000000000000000000000000081526004016105e590612121565b60405180910390fd5b7f000000000000000000000000000000000000000000000000000000000000000073ffffffffffffffffffffffffffffffffffffffff1661062d61128a565b73ffffffffffffffffffffffffffffffffffffffff1614610683576040517f08c379a000000000000000000000000000000000000000000000000000000000815260040161067a906121b3565b60405180910390fd5b61068c816112e1565b6106e581600067ffffffffffffffff8111156106ab576106aa611dfd565b5b6040519080825280601f01601f1916602001820160405280156106dd5781602001600182028036833780820191505090505b5060006112ec565b50565b6000806106f3610db4565b90506107148185856107058589610caa565b61070f9190612202565b610dbc565b600191505092915050565b7f000000000000000000000000000000000000000000000000000000000000000073ffffffffffffffffffffffffffffffffffffffff163073ffffffffffffffffffffffffffffffffffffffff16036107ad576040517f08c379a00000000000000000000000000000000000000000000000000000000081526004016107a490612121565b60405180910390fd5b7f000000000000000000000000000000000000000000000000000000000000000073ffffffffffffffffffffffffffffffffffffffff166107ec61128a565b73ffffffffffffffffffffffffffffffffffffffff1614610842576040517f08c379a0000000000000000000000000000000000000000000000000000000008152600401610839906121b3565b60405180910390fd5b61084b826112e1565b610857828260016112ec565b5050565b60007f000000000000000000000000000000000000000000000000000000000000000073ffffffffffffffffffffffffffffffffffffffff163073ffffffffffffffffffffffffffffffffffffffff16146108eb576040517f08c379a00000000000000000000000000000000000000000000000000000000081526004016108e2906122a8565b60405180910390fd5b7f360894a13ba1a3210667c828492db98dca3e2076cc3735a920a3ca505d382bbc60001b905090565b6000603360008373ffffffffffffffffffffffffffffffffffffffff1673ffffffffffffffffffffffffffffffffffffffff168152602001908152602001600020549050919050565b61096561145a565b61096f60006114d8565b565b600060c960009054906101000a900473ffffffffffffffffffffffffffffffffffffffff16905090565b60008060019054906101000a900460ff161590508080156109cc5750600160008054906101000a900460ff1660ff16105b806109f957506109db3061159e565b1580156109f85750600160008054906101000a900460ff1660ff16145b5b610a38576040517f08c379a0000000000000000000000000000000000000000000000000000000008152600401610a2f9061233a565b60405180910390fd5b60016000806101000a81548160ff021916908360ff1602179055508015610a75576001600060016101000a81548160ff0219169083151502179055505b610ae96040518060400160405280600581526020017f746f6b656e0000000000000000000000000000000000000000000000000000008152506040518060400160405280600181526020017f74000000000000000000000000000000000000000000000000000000000000008152506115c1565b610af161161e565b610af961167f565b610b2133610b05610557565b600a610b11919061248d565b84610b1c91906124d8565b6116d0565b8015610b7a5760008060016101000a81548160ff0219169083151502179055507f7f26b83ff96e1f2b6a682f133852f6798a09c465da95921460cefb38474024986001604051610b71919061255f565b60405180910390a15b5050565b606060378054610b8d9061207e565b80601f0160208091040260200160405190810160405280929190818152602001828054610bb99061207e565b8015610c065780601f10610bdb57610100808354040283529160200191610c06565b820191906000526020600020905b815481529060010190602001808311610be957829003601f168201915b5050505050905090565b600080610c1b610db4565b90506000610c298286610caa565b905083811015610c6e576040517f08c379a0000000000000000000000000000000000000000000000000000000008152600401610c65906125ec565b60405180910390fd5b610c7b8286868403610dbc565b60019250505092915050565b600080610c92610db4565b9050610c9f818585611011565b600191505092915050565b6000603460008473ffffffffffffffffffffffffffffffffffffffff1673ffffffffffffffffffffffffffffffffffffffff16815260200190815260200160002060008373ffffffffffffffffffffffffffffffffffffffff1673ffffffffffffffffffffffffffffffffffffffff16815260200190815260200160002054905092915050565b610d3961145a565b600073ffffffffffffffffffffffffffffffffffffffff168173ffffffffffffffffffffffffffffffffffffffff1603610da8576040517f08c379a0000000000000000000000000000000000000000000000000000000008152600401610d9f9061267e565b60405180910390fd5b610db1816114d8565b50565b600033905090565b600073ffffffffffffffffffffffffffffffffffffffff168373ffffffffffffffffffffffffffffffffffffffff1603610e2b576040517f08c379a0000000000000000000000000000000000000000000000000000000008152600401610e2290612710565b60405180910390fd5b600073ffffffffffffffffffffffffffffffffffffffff168273ffffffffffffffffffffffffffffffffffffffff1603610e9a576040517f08c379a0000000000000000000000000000000000000000000000000000000008152600401610e91906127a2565b60405180910390fd5b80603460008573ffffffffffffffffffffffffffffffffffffffff1673ffffffffffffffffffffffffffffffffffffffff16815260200190815260200160002060008473ffffffffffffffffffffffffffffffffffffffff1673ffffffffffffffffffffffffffffffffffffffff168152602001908152602001600020819055508173ffffffffffffffffffffffffffffffffffffffff168373ffffffffffffffffffffffffffffffffffffffff167f8c5be1e5ebec7d5bd14f71427d1e84f3dd0314c0f7b2291e5b200ac8c7c3b92583604051610f789190611d21565b60405180910390a3505050565b6000610f918484610caa565b90507fffffffffffffffffffffffffffffffffffffffffffffffffffffffffffffffff811461100b5781811015610ffd576040517f08c379a0000000000000000000000000000000000000000000000000000000008152600401610ff49061280e565b60405180910390fd5b61100a8484848403610dbc565b5b50505050565b600073ffffffffffffffffffffffffffffffffffffffff168373ffffffffffffffffffffffffffffffffffffffff1603611080576040517f08c379a0000000000000000000000000000000000000000000000000000000008152600401611077906128a0565b60405180910390fd5b600073ffffffffffffffffffffffffffffffffffffffff168273ffffffffffffffffffffffffffffffffffffffff16036110ef576040517f08c379a00000000000000000000000000000000000000000000000000000000081526004016110e690612932565b60405180910390fd5b6110fa838383611827565b6000603360008573ffffffffffffffffffffffffffffffffffffffff1673ffffffffffffffffffffffffffffffffffffffff16815260200190815260200160002054905081811015611181576040517f08c379a0000000000000000000000000000000000000000000000000000000008152600401611178906129c4565b60405180910390fd5b818103603360008673ffffffffffffffffffffffffffffffffffffffff1673ffffffffffffffffffffffffffffffffffffffff1681526020019081526020016000208190555081603360008573ffffffffffffffffffffffffffffffffffffffff1673ffffffffffffffffffffffffffffffffffffffff168152602001908152602001600020600082825401925050819055508273ffffffffffffffffffffffffffffffffffffffff168473ffffffffffffffffffffffffffffffffffffffff167fddf252ad1be2c89b69c2b068fc378daa952ba7f163c4a11628f55a4df523b3ef846040516112719190611d21565b60405180910390a361128484848461182c565b50505050565b60006112b87f360894a13ba1a3210667c828492db98dca3e2076cc3735a920a3ca505d382bbc60001b611831565b60000160009054906101000a900473ffffffffffffffffffffffffffffffffffffffff16905090565b6112e961145a565b50565b6113187f4910fdfa16fed3260ed0e7147f7cc6da11a60208b5b9406d12a635614ffd914360001b61183b565b60000160009054906101000a900460ff161561133c5761133783611845565b611455565b8273ffffffffffffffffffffffffffffffffffffffff166352d1902d6040518163ffffffff1660e01b8152600401602060405180830381865afa9250505080156113a457506040513d601f19601f820116820180604052508101906113a19190612a10565b60015b6113e3576040517f08c379a00000000000000000000000000000000000000000000000000000000081526004016113da90612aaf565b60405180910390fd5b7f360894a13ba1a3210667c828492db98dca3e2076cc3735a920a3ca505d382bbc60001b8114611448576040517f08c379a000000000000000000000000000000000000000000000000000000000815260040161143f90612b41565b60405180910390fd5b506114548383836118fe565b5b505050565b611462610db4565b73ffffffffffffffffffffffffffffffffffffffff16611480610971565b73ffffffffffffffffffffffffffffffffffffffff16146114d6576040517f08c379a00000000000000000000000000000000000000000000000000000000081526004016114cd90612bad565b60405180910390fd5b565b600060c960009054906101000a900473ffffffffffffffffffffffffffffffffffffffff1690508160c960006101000a81548173ffffffffffffffffffffffffffffffffffffffff021916908373ffffffffffffffffffffffffffffffffffffffff1602179055508173ffffffffffffffffffffffffffffffffffffffff168173ffffffffffffffffffffffffffffffffffffffff167f8be0079c531659141344cd1fd0a4f28419497f9722a3daafe3b4186f6b6457e060405160405180910390a35050565b6000808273ffffffffffffffffffffffffffffffffffffffff163b119050919050565b600060019054906101000a900460ff16611610576040517f08c379a000000000000000000000000000000000000000000000000000000000815260040161160790612c3f565b60405180910390fd5b61161a828261192a565b5050565b600060019054906101000a900460ff1661166d576040517f08c379a000000000000000000000000000000000000000000000000000000000815260040161166490612c3f565b60405180910390fd5b61167d611678610db4565b6114d8565b565b600060019054906101000a900460ff166116ce576040517f08c379a00000000000000000000000000000000000000000000000000000000081526004016116c590612c3f565b60405180910390fd5b565b600073ffffffffffffffffffffffffffffffffffffffff168273ffffffffffffffffffffffffffffffffffffffff160361173f576040517f08c379a000000000000000000000000000000000000000000000000000000000815260040161173690612cab565b60405180910390fd5b61174b60008383611827565b806035600082825461175d9190612202565b9250508190555080603360008473ffffffffffffffffffffffffffffffffffffffff1673ffffffffffffffffffffffffffffffffffffffff168152602001908152602001600020600082825401925050819055508173ffffffffffffffffffffffffffffffffffffffff16600073ffffffffffffffffffffffffffffffffffffffff167fddf252ad1be2c89b69c2b068fc378daa952ba7f163c4a11628f55a4df523b3ef8360405161180f9190611d21565b60405180910390a36118236000838361182c565b5050565b505050565b505050565b6000819050919050565b6000819050919050565b61184e8161159e565b61188d576040517f08c379a000000000000000000000000000000000000000000000000000000000815260040161188490612d3d565b60405180910390fd5b806118ba7f360894a13ba1a3210667c828492db98dca3e2076cc3735a920a3ca505d382bbc60001b611831565b60000160006101000a81548173ffffffffffffffffffffffffffffffffffffffff021916908373ffffffffffffffffffffffffffffffffffffffff16021790555050565b6119078361199d565b6000825111806119145750805b156119255761192383836119ec565b505b505050565b600060019054906101000a900460ff16611979576040517f08c379a000000000000000000000000000000000000000000000000000000000815260040161197090612c3f565b60405180910390fd5b81603690816119889190612eff565b5080603790816119989190612eff565b505050565b6119a681611845565b8073ffffffffffffffffffffffffffffffffffffffff167fbc7cd75a20ee27fd9adebab32041f755214dbc6bffa90cc0225b39da2e5c2d3b60405160405180910390a250565b60606119f78361159e565b611a36576040517f08c379a0000000000000000000000000000000000000000000000000000000008152600401611a2d90613043565b60405180910390fd5b6000808473ffffffffffffffffffffffffffffffffffffffff1684604051611a5e91906130aa565b600060405180830381855af49150503d8060008114611a99576040519150601f19603f3d011682016040523d82523d6000602084013e611a9e565b606091505b5091509150611ac682826040518060600160405280602781526020016130c260279139611ad0565b9250505092915050565b60608315611ae057829050611aeb565b611aea8383611af2565b5b9392505050565b600082511115611b055781518083602001fd5b806040517f08c379a0000000000000000000000000000000000000000000000000000000008152600401611b399190611bd2565b60405180910390fd5b600081519050919050565b600082825260208201905092915050565b60005b83811015611b7c578082015181840152602081019050611b61565b60008484015250505050565b6000601f19601f8301169050919050565b6000611ba482611b42565b611bae8185611b4d565b9350611bbe818560208601611b5e565b611bc781611b88565b840191505092915050565b60006020820190508181036000830152611bec8184611b99565b905092915050565b6000604051905090565b600080fd5b600080fd5b600073ffffffffffffffffffffffffffffffffffffffff82169050919050565b6000611c3382611c08565b9050919050565b611c4381611c28565b8114611c4e57600080fd5b50565b600081359050611c6081611c3a565b92915050565b6000819050919050565b611c7981611c66565b8114611c8457600080fd5b50565b600081359050611c9681611c70565b92915050565b60008060408385031215611cb357611cb2611bfe565b5b6000611cc185828601611c51565b9250506020611cd285828601611c87565b9150509250929050565b60008115159050919050565b611cf181611cdc565b82525050565b6000602082019050611d0c6000830184611ce8565b92915050565b611d1b81611c66565b82525050565b6000602082019050611d366000830184611d12565b92915050565b600080600060608486031215611d5557611d54611bfe565b5b6000611d6386828701611c51565b9350506020611d7486828701611c51565b9250506040611d8586828701611c87565b9150509250925092565b600060ff82169050919050565b611da581611d8f565b82525050565b6000602082019050611dc06000830184611d9c565b92915050565b600060208284031215611ddc57611ddb611bfe565b5b6000611dea84828501611c51565b91505092915050565b600080fd5b600080fd5b7f4e487b7100000000000000000000000000000000000000000000000000000000600052604160045260246000fd5b611e3582611b88565b810181811067ffffffffffffffff82111715611e5457611e53611dfd565b5b80604052505050565b6000611e67611bf4565b9050611e738282611e2c565b919050565b600067ffffffffffffffff821115611e9357611e92611dfd565b5b611e9c82611b88565b9050602081019050919050565b82818337600083830152505050565b6000611ecb611ec684611e78565b611e5d565b905082815260208101848484011115611ee757611ee6611df8565b5b611ef2848285611ea9565b509392505050565b600082601f830112611f0f57611f0e611df3565b5b8135611f1f848260208601611eb8565b91505092915050565b60008060408385031215611f3f57611f3e611bfe565b5b6000611f4d85828601611c51565b925050602083013567ffffffffffffffff811115611f6e57611f6d611c03565b5b611f7a85828601611efa565b9150509250929050565b6000819050919050565b611f9781611f84565b82525050565b6000602082019050611fb26000830184611f8e565b92915050565b611fc181611c28565b82525050565b6000602082019050611fdc6000830184611fb8565b92915050565b600060208284031215611ff857611ff7611bfe565b5b600061200684828501611c87565b91505092915050565b6000806040838503121561202657612025611bfe565b5b600061203485828601611c51565b925050602061204585828601611c51565b9150509250929050565b7f4e487b7100000000000000000000000000000000000000000000000000000000600052602260045260246000fd5b6000600282049050600182168061209657607f821691505b6020821081036120a9576120a861204f565b5b50919050565b7f46756e6374696f6e206d7573742062652063616c6c6564207468726f7567682060008201527f64656c656761746563616c6c0000000000000000000000000000000000000000602082015250565b600061210b602c83611b4d565b9150612116826120af565b604082019050919050565b6000602082019050818103600083015261213a816120fe565b9050919050565b7f46756e6374696f6e206d7573742062652063616c6c6564207468726f7567682060008201527f6163746976652070726f78790000000000000000000000000000000000000000602082015250565b600061219d602c83611b4d565b91506121a882612141565b604082019050919050565b600060208201905081810360008301526121cc81612190565b9050919050565b7f4e487b7100000000000000000000000000000000000000000000000000000000600052601160045260246000fd5b600061220d82611c66565b915061221883611c66565b92508282019050808211156122305761222f6121d3565b5b92915050565b7f555550535570677261646561626c653a206d757374206e6f742062652063616c60008201527f6c6564207468726f7567682064656c656761746563616c6c0000000000000000602082015250565b6000612292603883611b4d565b915061229d82612236565b604082019050919050565b600060208201905081810360008301526122c181612285565b9050919050565b7f496e697469616c697a61626c653a20636f6e747261637420697320616c72656160008201527f647920696e697469616c697a6564000000000000000000000000000000000000602082015250565b6000612324602e83611b4d565b915061232f826122c8565b604082019050919050565b6000602082019050818103600083015261235381612317565b9050919050565b60008160011c9050919050565b6000808291508390505b60018511156123b15780860481111561238d5761238c6121d3565b5b600185161561239c5780820291505b80810290506123aa8561235a565b9450612371565b94509492505050565b6000826123ca5760019050612486565b816123d85760009050612486565b81600181146123ee57600281146123f857612427565b6001915050612486565b60ff84111561240a576124096121d3565b5b8360020a915084821115612421576124206121d3565b5b50612486565b5060208310610133831016604e8410600b841016171561245c5782820a905083811115612457576124566121d3565b5b612486565b6124698484846001612367565b925090508184048111156124805761247f6121d3565b5b81810290505b9392505050565b600061249882611c66565b91506124a383611d8f565b92506124d07fffffffffffffffffffffffffffffffffffffffffffffffffffffffffffffffff84846123ba565b905092915050565b60006124e382611c66565b91506124ee83611c66565b92508282026124fc81611c66565b91508282048414831517612513576125126121d3565b5b5092915050565b6000819050919050565b6000819050919050565b600061254961254461253f8461251a565b612524565b611d8f565b9050919050565b6125598161252e565b82525050565b60006020820190506125746000830184612550565b92915050565b7f45524332303a2064656372656173656420616c6c6f77616e63652062656c6f7760008201527f207a65726f000000000000000000000000000000000000000000000000000000602082015250565b60006125d6602583611b4d565b91506125e18261257a565b604082019050919050565b60006020820190508181036000830152612605816125c9565b9050919050565b7f4f776e61626c653a206e6577206f776e657220697320746865207a65726f206160008201527f6464726573730000000000000000000000000000000000000000000000000000602082015250565b6000612668602683611b4d565b91506126738261260c565b604082019050919050565b600060208201905081810360008301526126978161265b565b9050919050565b7f45524332303a20617070726f76652066726f6d20746865207a65726f2061646460008201527f7265737300000000000000000000000000000000000000000000000000000000602082015250565b60006126fa602483611b4d565b91506127058261269e565b604082019050919050565b60006020820190508181036000830152612729816126ed565b9050919050565b7f45524332303a20617070726f766520746f20746865207a65726f20616464726560008201527f7373000000000000000000000000000000000000000000000000000000000000602082015250565b600061278c602283611b4d565b915061279782612730565b604082019050919050565b600060208201905081810360008301526127bb8161277f565b9050919050565b7f45524332303a20696e73756666696369656e7420616c6c6f77616e6365000000600082015250565b60006127f8601d83611b4d565b9150612803826127c2565b602082019050919050565b60006020820190508181036000830152612827816127eb565b9050919050565b7f45524332303a207472616e736665722066726f6d20746865207a65726f20616460008201527f6472657373000000000000000000000000000000000000000000000000000000602082015250565b600061288a602583611b4d565b91506128958261282e565b604082019050919050565b600060208201905081810360008301526128b98161287d565b9050919050565b7f45524332303a207472616e7366657220746f20746865207a65726f206164647260008201527f6573730000000000000000000000000000000000000000000000000000000000602082015250565b600061291c602383611b4d565b9150612927826128c0565b604082019050919050565b6000602082019050818103600083015261294b8161290f565b9050919050565b7f45524332303a207472616e7366657220616d6f756e742065786365656473206260008201527f616c616e63650000000000000000000000000000000000000000000000000000602082015250565b60006129ae602683611b4d565b91506129b982612952565b604082019050919050565b600060208201905081810360008301526129dd816129a1565b9050919050565b6129ed81611f84565b81146129f857600080fd5b50565b600081519050612a0a816129e4565b92915050565b600060208284031215612a2657612a25611bfe565b5b6000612a34848285016129fb565b91505092915050565b7f45524331393637557067726164653a206e657720696d706c656d656e7461746960008201527f6f6e206973206e6f742055555053000000000000000000000000000000000000602082015250565b6000612a99602e83611b4d565b9150612aa482612a3d565b604082019050919050565b60006020820190508181036000830152612ac881612a8c565b9050919050565b7f45524331393637557067726164653a20756e737570706f727465642070726f7860008201527f6961626c65555549440000000000000000000000000000000000000000000000602082015250565b6000612b2b602983611b4d565b9150612b3682612acf565b604082019050919050565b60006020820190508181036000830152612b5a81612b1e565b9050919050565b7f4f776e61626c653a2063616c6c6572206973206e6f7420746865206f776e6572600082015250565b6000612b97602083611b4d565b9150612ba282612b61565b602082019050919050565b60006020820190508181036000830152612bc681612b8a565b9050919050565b7f496e697469616c697a61626c653a20636f6e7472616374206973206e6f74206960008201527f6e697469616c697a696e67000000000000000000000000000000000000000000602082015250565b6000612c29602b83611b4d565b9150612c3482612bcd565b604082019050919050565b60006020820190508181036000830152612c5881612c1c565b9050919050565b7f45524332303a206d696e7420746f20746865207a65726f206164647265737300600082015250565b6000612c95601f83611b4d565b9150612ca082612c5f565b602082019050919050565b60006020820190508181036000830152612cc481612c88565b9050919050565b7f455243313936373a206e657720696d706c656d656e746174696f6e206973206e60008201527f6f74206120636f6e747261637400000000000000000000000000000000000000602082015250565b6000612d27602d83611b4d565b9150612d3282612ccb565b604082019050919050565b60006020820190508181036000830152612d5681612d1a565b9050919050565b60008190508160005260206000209050919050565b60006020601f8301049050919050565b600082821b905092915050565b600060088302612dbf7fffffffffffffffffffffffffffffffffffffffffffffffffffffffffffffffff82612d82565b612dc98683612d82565b95508019841693508086168417925050509392505050565b6000612dfc612df7612df284611c66565b612524565b611c66565b9050919050565b6000819050919050565b612e1683612de1565b612e2a612e2282612e03565b848454612d8f565b825550505050565b600090565b612e3f612e32565b612e4a818484612e0d565b505050565b5b81811015612e6e57612e63600082612e37565b600181019050612e50565b5050565b601f821115612eb357612e8481612d5d565b612e8d84612d72565b81016020851015612e9c578190505b612eb0612ea885612d72565b830182612e4f565b50505b505050565b600082821c905092915050565b6000612ed660001984600802612eb8565b1980831691505092915050565b6000612eef8383612ec5565b9150826002028217905092915050565b612f0882611b42565b67ffffffffffffffff811115612f2157612f20611dfd565b5b612f2b825461207e565b612f36828285612e72565b600060209050601f831160018114612f695760008415612f57578287015190505b612f618582612ee3565b865550612fc9565b601f198416612f7786612d5d565b60005b82811015612f9f57848901518255600182019150602085019450602081019050612f7a565b86831015612fbc5784890151612fb8601f891682612ec5565b8355505b6001600288020188555050505b505050505050565b7f416464726573733a2064656c65676174652063616c6c20746f206e6f6e2d636f60008201527f6e74726163740000000000000000000000000000000000000000000000000000602082015250565b600061302d602683611b4d565b915061303882612fd1565b604082019050919050565b6000602082019050818103600083015261305c81613020565b9050919050565b600081519050919050565b600081905092915050565b600061308482613063565b61308e818561306e565b935061309e818560208601611b5e565b80840191505092915050565b60006130b68284613079565b91508190509291505056fe416464726573733a206c6f772d6c6576656c2064656c65676174652063616c6c206661696c6564a26469706673582212206d4e44ea022abe0b8502842ba6e58f72fb9ed2298393289de3d5808e1e986dd764736f6c63430008120033",
  "linkReferences": {},
  "deployedLinkReferences": {}
}